:020000040000FA
:040000000DEF00F010
:0400080069EF09F0A3
:06001800FF0048EF09F0B3
:101000000053657269616C20496E74657266616334
:0B101000652052454144590D0A0000C4
:10101C00000EBE6E020EBD6E000EBA6E000EBB6EE2
:10102C00000EBC6E070EC66EC268F90EC36EC468A5
:10103C00C568000E3A01706F800E606F000E506F25
:10104C00000E806F000E406F000E716F000E816FEE
:10105C00070E516F000E416F000E616F000E5A6F3C
:10106C00000E5B6F000E6A6F000E6B6F000E7A6FD6
:10107C00000E7B6F000E826F000E426F000E526FDF
:10108C00000E626F000E726F436953696369736976
:10109C00070E836F44695469646974690F0E846F19
:1010AC00150E096F120ED96F190EDC6F130E0A6F25
:1010BC00180EDB6F130EDA6F0B0EE56F080EE66F72
:1010CC001200000E3D01EC6F000EED6F000EEE6F86
:1010DC00000EEF6F000EF06F000EF16FB00EF26F9E
:1010EC00810EF36F820EF46F820EF56F060EF66FA3
:1010FC00000EF76F440EF86F000EF96F000EFA6FCA
:10110C00000E016E000E026E78EC09F0000E016EFE
:10111C00000E026E71EC09F0000E016E000E026EF4
:10112C007FEC09F0000E126E120028EC09F0D28E42
:10113C00D28C39019997000E086E170E036EE5ECF0
:10114C0008F0082A170E0864F8D7010E036EE5ECB8
:10115C0008F0390199870AD06F00A3F7BAFF000E87
:10116C00C26E3901A397000EBA6EC268010E3C0123
:10117C006AAB000E3901A3A7000EE8A003D0076AE2
:10118C00072A01D0076A0750D8B4F0D7E5D7020E6A
:10119C00616F240E626F030E636F000E646F000E9E
:1011AC00656F020E666F080E676F000E686F000E9B
:1011BC00696F900E606F3901A99799871200040E20
:1011CC00056E03D0065086EC09F0032A0304046E66
:1011DC00600013F0F6FF100EF76EF86A08006F004F
:1011EC00D4FF06F00650D8B41200ECD7000E3C0128
:1011FC006B6F240E6C6F030E6D6F000E6E6F030E13
:10120C006F6F020E706F080E716F000E726F000E12
:10121C00736F800E6A6F12000E0E3C01756F000E1C
:10122C00766F010E776F020E786F000E796F020EDB
:10123C007A6F080E7B6F200E7C6F000E7D6F820E16
:10124C00746F12008BEC09F039EC09F00EEC08F01D
:10125C0055EC09F012EC09F0CDEC08F0FCEC08F0C0
:10126C0067EC08F01200720EC06FC169670EC26F96
:10127C00C369E00EC46F270EC56F310EC66F030E27
:10128C00C76F1200126A116A106A0F6A080ED56EC7
:10129C00000ED66E000ED76E00019BEF08F0600EAC
:1012AC003901D96F000EDB6F000EDD6F080EDF6F9A
:1012BC00000EDE6F1200016E3901A3A9FDD760008C
:1012CC0007F0EAFD1200390199A71100A9A7110036
:1012DC008FEC09F01100600004F00BF0600008F0D6
:1012EC000CF01200600004F00DF0600008F00EF03D
:1012FC001200600004F009F0600008F00AF012001F
:10130C00026E025061EC09F01200D28A3901898711
:0A131C001200020E116EA9971200D4
:020000040020DA
:10000000FF0FFF0FFF0FFF0FFF0FFF0FFF0FFF0F80
:020000040030CA
:0A0000008CFFF7FF9FFFFFFFFFFFDB
:00000001FF
