:020000040000FA
:0400000030EF00F0ED
:020004000000FA
:08000800A191CC5000D8F926AB
:100010000FD01ED01DD01CD003D012D019D018D0B4
:100020006F00A3F7BAFFC26A00000000C2681100A7
:100030006F002BFFEAFD000000000000000011002F
:100040006E008FF6BAFFC26A00000000C26811009D
:0200500011009D
:100060003A01406B506B606B706B806BBA6ABB6A15
:10007000BC6ABD6ABE6AC268C368C468C568070E48
:10008000C66E3A010B0EE56F130E0A6F080EE66F8F
:10009000150E096F0D0EC06FD29ED2803901A1914D
:0A00A0009181D28E000052EF00F0B3
:020000040030CA
:010000008C73
:01000100FFFF
:01000200E716
:01000300FFFD
:010004009F5C
:01000500FFFB
:01000600FFFA
:01000700FFF9
:01000800FFF8
:00000001FF
